{
  "contractName": "SteezCoin",
  "abi": [
    {
      "constant": true,
      "inputs": [],
      "name": "totalSupply",
      "outputs": [
        {
          "internalType": "uint256",
          "name": "",
          "type": "uint256"
        }
      ],
      "payable": false,
      "stateMutability": "view",
      "type": "function"
    },
    {
      "constant": false,
      "inputs": [],
      "name": "setSupply",
      "outputs": [],
      "payable": false,
      "stateMutability": "nonpayable",
      "type": "function"
    }
  ],
  "bytecode": "0x6080604052348015600f57600080fd5b5060a38061001e6000396000f3fe6080604052348015600f57600080fd5b506004361060325760003560e01c806318160ddd146037578063b743ccbd146053575b600080fd5b603d605b565b6040518082815260200191505060405180910390f35b60596061565b005b60005481565b631908b10060008190555056fea265627a7a723158204bb935e516a3360b986ce9bff449599c38609153666120be718642de8558e2a564736f6c63430005100032",
  "source": "// SPDX-License-Identifier: GPL-3.0\npragma solidity >=0.4.16 <0.8.0;\n\ncontract SteezCoin {\n    // Constructor\n    // set the total number of tokens\n    // read the total number of tokens\n    uint256 public totalSupply;\n\n    function setSupply() public {\n        totalSupply = 420000000;\n    }\n}\n",
  "sourcePath": "/Users/gibpalmer/Dropbox/Code/steez/contracts/SteezCoin.sol",
  "compiler": {
    "name": "solc",
    "version": "0.5.16+commit.9c3226ce.Emscripten.clang"
  },
  "schemaVersion": "3.3.3",
  "updatedAt": "2021-02-04T05:11:41.965Z",
  "networkType": "ethereum",
  "devdoc": {
    "methods": {}
  },
  "userdoc": {
    "methods": {}
  }
}